{
	"_format": "hh-sol-artifact-1",
	"contractName": "ethAccountStorage",
	"sourceName": "contracts/ethcontract.sol",
	"abi": [
		{
			"inputs": [],
			"stateMutability": "nonpayable",
			"type": "constructor"
		},
		{
			"inputs": [
				{
					"internalType": "address",
					"name": "",
					"type": "address"
				}
			],
			"name": "contractList",
			"outputs": [
				{
					"internalType": "address",
					"name": "to",
					"type": "address"
				},
				{
					"internalType": "string",
					"name": "remark",
					"type": "string"
				},
				{
					"internalType": "uint256",
					"name": "amount",
					"type": "uint256"
				}
			],
			"stateMutability": "view",
			"type": "function"
		},
		{
			"inputs": [
				{
					"internalType": "address",
					"name": "of_",
					"type": "address"
				}
			],
			"name": "contractdetail",
			"outputs": [
				{
					"components": [
						{
							"internalType": "address",
							"name": "to",
							"type": "address"
						},
						{
							"internalType": "string",
							"name": "remark",
							"type": "string"
						},
						{
							"internalType": "uint256",
							"name": "amount",
							"type": "uint256"
						}
					],
					"internalType": "struct ethAccountStorage.contractDetail",
					"name": "",
					"type": "tuple"
				}
			],
			"stateMutability": "view",
			"type": "function"
		},
		{
			"inputs": [
				{
					"internalType": "address payable",
					"name": "_to",
					"type": "address"
				},
				{
					"internalType": "uint256",
					"name": "amount_",
					"type": "uint256"
				},
				{
					"internalType": "string",
					"name": "remark_",
					"type": "string"
				}
			],
			"name": "ethersend",
			"outputs": [],
			"stateMutability": "payable",
			"type": "function"
		}
	],
	"bytecode": "0x608060405234801561001057600080fd5b50336000806101000a81548173ffffffffffffffffffffffffffffffffffffffff021916908373ffffffffffffffffffffffffffffffffffffffff1602179055506109cb806100606000396000f3fe6080604052600436106100345760003560e01c80630be5967b146100395780632dbe4d4814610078578063fe13e56e146100b5575b600080fd5b34801561004557600080fd5b50610060600480360381019061005b9190610520565b6100d1565b60405161006f9392919061060e565b60405180910390f35b34801561008457600080fd5b5061009f600480360381019061009a9190610520565b6101a3565b6040516100ac9190610704565b60405180910390f35b6100cf60048036038101906100ca91906108c5565b6102ee565b005b60016020528060005260406000206000915090508060000160009054906101000a900473ffffffffffffffffffffffffffffffffffffffff169080600101805461011a90610963565b80601f016020809104026020016040519081016040528092919081815260200182805461014690610963565b80156101935780601f1061016857610100808354040283529160200191610193565b820191906000526020600020905b81548152906001019060200180831161017657829003601f168201915b5050505050908060020154905083565b6101ab6103d4565b600160008373ffffffffffffffffffffffffffffffffffffffff1673ffffffffffffffffffffffffffffffffffffffff1681526020019081526020016000206040518060600160405290816000820160009054906101000a900473ffffffffffffffffffffffffffffffffffffffff1673ffffffffffffffffffffffffffffffffffffffff1673ffffffffffffffffffffffffffffffffffffffff16815260200160018201805461025b90610963565b80601f016020809104026020016040519081016040528092919081815260200182805461028790610963565b80156102d45780601f106102a9576101008083540402835291602001916102d4565b820191906000526020600020905b8154815290600101906020018083116102b757829003601f168201915b505050505081526020016002820154815250509050919050565b60405180606001604052808473ffffffffffffffffffffffffffffffffffffffff16815260200182815260200183815250600160003373ffffffffffffffffffffffffffffffffffffffff1673ffffffffffffffffffffffffffffffffffffffff16815260200190815260200160002060008201518160000160006101000a81548173ffffffffffffffffffffffffffffffffffffffff021916908373ffffffffffffffffffffffffffffffffffffffff16021790555060208201518160010190805190602001906103c192919061040b565b5060408201518160020155905050505050565b6040518060600160405280600073ffffffffffffffffffffffffffffffffffffffff16815260200160608152602001600081525090565b82805461041790610963565b90600052602060002090601f0160209004810192826104395760008555610480565b82601f1061045257805160ff1916838001178555610480565b82800160010185558215610480579182015b8281111561047f578251825591602001919060010190610464565b5b50905061048d9190610491565b5090565b5b808211156104aa576000816000905550600101610492565b5090565b6000604051905090565b600080fd5b600080fd5b600073ffffffffffffffffffffffffffffffffffffffff82169050919050565b60006104ed826104c2565b9050919050565b6104fd816104e2565b811461050857600080fd5b50565b60008135905061051a816104f4565b92915050565b600060208284031215610536576105356104b8565b5b60006105448482850161050b565b91505092915050565b610556816104e2565b82525050565b600081519050919050565b600082825260208201905092915050565b60005b8381101561059657808201518184015260208101905061057b565b838111156105a5576000848401525b50505050565b6000601f19601f8301169050919050565b60006105c78261055c565b6105d18185610567565b93506105e1818560208601610578565b6105ea816105ab565b840191505092915050565b6000819050919050565b610608816105f5565b82525050565b6000606082019050610623600083018661054d565b818103602083015261063581856105bc565b905061064460408301846105ff565b949350505050565b610655816104e2565b82525050565b600082825260208201905092915050565b60006106778261055c565b610681818561065b565b9350610691818560208601610578565b61069a816105ab565b840191505092915050565b6106ae816105f5565b82525050565b60006060830160008301516106cc600086018261064c565b50602083015184820360208601526106e4828261066c565b91505060408301516106f960408601826106a5565b508091505092915050565b6000602082019050818103600083015261071e81846106b4565b905092915050565b6000610731826104c2565b9050919050565b61074181610726565b811461074c57600080fd5b50565b60008135905061075e81610738565b92915050565b61076d816105f5565b811461077857600080fd5b50565b60008135905061078a81610764565b92915050565b600080fd5b600080fd5b7f4e487b7100000000000000000000000000000000000000000000000000000000600052604160045260246000fd5b6107d2826105ab565b810181811067ffffffffffffffff821117156107f1576107f061079a565b5b80604052505050565b60006108046104ae565b905061081082826107c9565b919050565b600067ffffffffffffffff8211156108305761082f61079a565b5b610839826105ab565b9050602081019050919050565b82818337600083830152505050565b600061086861086384610815565b6107fa565b90508281526020810184848401111561088457610883610795565b5b61088f848285610846565b509392505050565b600082601f8301126108ac576108ab610790565b5b81356108bc848260208601610855565b91505092915050565b6000806000606084860312156108de576108dd6104b8565b5b60006108ec8682870161074f565b93505060206108fd8682870161077b565b925050604084013567ffffffffffffffff81111561091e5761091d6104bd565b5b61092a86828701610897565b9150509250925092565b7f4e487b7100000000000000000000000000000000000000000000000000000000600052602260045260246000fd5b6000600282049050600182168061097b57607f821691505b6020821081141561098f5761098e610934565b5b5091905056fea2646970667358221220c55e049dc2ffe7e21b8eb4af2744144ccb0f3c49ff7bea5d6adc47c9949b28df64736f6c63430008090033",
	"linkReferences": {},
	"deployedLinkReferences": {}
}